:020000022000DC
:106000000000042091A80500D1A80500D3A8050030
:10601000D5A80500D7A80500D9A8050000000000F4
:106020000000000000000000000000000DA80500B6
:10603000DDA80500000000002DA80500E1A805006E
:10604000EDAA0500E3A80500B57C050035A5040010
:10605000E5A50400E3A8050045800500E3A80500C8
:10606000E3A80500E3A80500E3A80500E3A80500F0
:10607000E3A80500E3A80500E3A80500E3A80500E0
:10608000E3A8050091A50500E3A80500E3A8050025
:10609000E3A80500E3A80500318F0400E3A805008C
:1060A000E3A80500E3A80500E3A80500E3A80500B0
:1060B000E3A80500E3A805000000000000000000C0
:1060C000E3A80500E3A80500E3A8050015B0050056
:1060D000E3A80500E3A80500E3A80500216C020081
:1060E000017D0500E3A80500E3A80500000000000D
:1060F00000000000E3A80500000000008DB00500CE
:10610000000000000000000000000000000000008F
:10611000000000000000000000000000000000007F
:10612000000000000000000000000000000000006F
:10613000000000000000000000000000000000005F
:10614000000000000000000000000000000000004F
:10615000000000000000000000000000000000003F
:10616000000000000000000000000000000000002F
:10617000000000000000000000000000000000001F
:10618000000000000000000000000000000000000F
:1061900000000000000000000000000000000000FF
:1061A00000000000000000000000000000000000EF
:1061B00000000000000000000000000000000000DF
:1061C00000000000000000000000000000000000CF
:1061D00000000000000000000000000000000000BF
:1061E00000000000000000000000000000000000AF
:1061F000000000000000000000000000000000009F
:10620000F1EE103A43F08073E1EE103A704700BFB0
:1062100010B5054C237833B9044B13B10448AFF3E0
:1062200000800123237010BD1867002000000000CB
:1062300024DE060008B5034B1BB103490348AFF346
:10624000008008BD000000001C67002024DE06005E
:10625000154B002B08BF134B9D46A3F5803A002138
:106260008B460F461348144A121A3BF004FF0F4B9B
:10627000002B00D098470E4B002B00D098470020F1
:10628000002104000D000D48002802D00C48AFF397
:1062900000803BF065FE2000290034F04BFB3BF012
:1062A00039FE00BF000008000000042000000000CC
:1062B0000000000018670020B4C7002000000000A4
:1062C000000000000146014800F084BA5467002035
:1062D00038B500F02FF940B10024054620460134BE
:1062E00000F0D6FDE0B28542F9D838BD70B592B065
:1062F0001D460C46164601A8422200213BF0BBFE7B
:10630000412D02D8002012B070BD621CD2B202230F
:106310008DF806408DF80E408DF826408DF81E2031
:106320008DF827208DF8312040F20945052240F2F2
:1063300001248DF807308DF808308DF809308DF87C
:1063400012308DF821308DF822308DF833308DF8F1
:106350003B30ADF80C502423ADF810408DF81520DB
:106360008DF823201B4D8DF81630042201248DF862
:1063700020308DF8243006958DF81C408DF81F20B4
:106380008DF830203046144D0A9540F60836082323
:106390004FF411640A22ADF804608DF82C30ADF88A
:1063A0002E4040238DF8342001A9062640F20755DF
:1063B0000A4C8DF825604222ADF838508DF83C30FB
:1063C0008DF84330CDF83F403BF031FE422012B013
:1063D00070BD00BF2001052407058003070580026A
:1063E000A0F11000FFF782BF007EFF2806D010B595
:1063F00000F0A4FC044618B1204610BD00207047F0
:1064000034F062FF204610BD007EFF280ED000B59C
:1064100083B00DF1070100F0DBFC20B19DF807000F
:1064200003B05DF804FB4FF0FF30F9E74FF0FF30A9
:10643000704700BF007EFF2811D000B583B0012255
:106440000DF1070100F086FC20B94FF0FF3003B0DA
:106450005DF804FB9DF8070003B05DF804FB4FF006
:10646000FF307047007EFF2801D000F011BD70475B
:10647000007EFF2801D000F051BD0020704700BF12
:10648000F8B50646007EFF281CD017465AB10D46C7
:10649000144600F02DFC2946224680B1307E00F0E3
:1064A000A1FC241A01D13846F8BD054434F00CFF94
:1064B000307E00F01DFC294622460028EED13F1B0D
:1064C0003846F1E70020F8BD70B50368184A5B68EC
:1064D00082B093428DF8071024D10546007EFF2834
:1064E0001DD000F005FC0DF10706012431462246BF
:1064F00088B1287E00F076FC241A02D1012002B077
:1065000070BD064434F0E0FE287E00F0F1FB314619
:1065100022460028EDD1C4F1010002B070BD002078
:1065200002B070BD01220DF10701984702B070BDA5
:1065300081640200014B1878704700BF506700204B
:10654000037EFF2B00D07047064B1A78002AFAD141
:10655000054902764161012200F1100103481A70D9
:1065600000F0D8B850670020EC58060054670020AF
:10657000007EFF2807D000B583B000F0B9FB20B142
:1065800003B05DF804FB00207047019034F09CFEDE
:10659000019803B05DF804FB01B900B1704700B584
:1065A00083B0694600F0BAFB009BB3F5966F02D04A
:1065B00003B05DF804FB00F049FBF9E730B4084B89
:1065C000084AFF2002F108054FF47A7400213032A6
:1065D00018761D609C601A615960596130BC704723
:1065E00034670020FC5806002DE9F0410024484E95
:1065F0002546435D4719A3B103F14002D2B2012AF7
:106600000AD9F42B08D81A060ED44FF0010EA3F5C0
:106610005842B2F5006F56D201354719435D002B41
:10662000EAD12046BDE8F08103F0E002C02A57D04D
:1066300003F0F002E02A66D003F0F802F02AEBD172
:1066400003F007024FF0040E7B7803F0C00CBCF19E
:10665000800FE1D197F802C00CF0C00803F03F03AF
:10666000B8F1800F43EA8213D6D10CF03F0CBEF193
:10667000030F4CEA83132DD0FA7802F0C007802F65
:10668000CAD102F03F0242EA8313A3F58032B2423C
:10669000C2D8A3F55847B7F5006FBDD3B3F5803F17
:1066A00005F1040510D31E2CBBDC6300970A0B44D4
:1066B000C2F30902A7F52057A2F5105221F8147071
:1066C0005A80023495E77544202CAAD021F8143062
:1066D00001348EE7A3F50062B2F5784F97D39BE7BC
:1066E0007A7802F0C007802F03F01F0394D102F0E4
:1066F0003F0242EA8313A3F18002B2F5F06F8BD21E
:106700004FF0020E83E703F00F024FF0030E9BE7FA
:10671000FFFF0F00F8B5B0F818214469B0F81A313E
:10672000054608680E469B1A1444076895F81C1124
:106730009BB222463046B84750B32218944229D221
:10674000766806E0052B32D023780BB31C44A242B6
:1067500020D96378042BF5D1E378002BF4D195F898
:106760001C11013185F81C11002EEDD095F8501147
:106770000B29E9D801F1480745F82760217295F8FF
:106780005011013185F850111E462378002BDDD1C0
:106790000020F8BDB5F818216B69104480B2A5F847
:1067A0001801588095F81C211A710120F8BD94F940
:1067B0000230002B08DB95F81E31591C85F81E119C
:1067C000A1780B43A370BFE795F81D31591C85F8DC
:1067D0001D11F5E72DE9F043284DDFF8B090AC46E8
:1067E00004468846BCE80F0089B003AF0FC703AE6C
:1067F0000FCE05F1140E25460FC59EE80700DCF804
:1068000000303B806B4636682E8003C36B4603CB5B
:10681000012504F118034FF480766361A061E16102
:1068200084F8202004F59870C4F818912022A4F868
:106830001C61002184F81E513BF01DFC40F2094709
:10684000042240F2EF230E4E0E48C4F82801002126
:10685000C4F82C1184F85021A3804FF4E131A571C4
:10686000C4F82071C4F824610748FFF769FE404668
:1068700000F0DAF9284609B0BDE8F0833059060087
:10688000605906006C5906003467002009000001B9
:106890000048704754670020014B5869704700BF9B
:1068A000546700202DE9F04F89B0F8B1032816D0C5
:1068B0002B4C94F8503183424FD9483004F5AA71DB
:1068C00054F82000FFF790FEC0B20130400040F4C1
:1068D0004070A4F85201234809B0BDE8F08F204C65
:1068E000D4F82C0150B104F5AA71EBE71C4CD4F894
:1068F0002031A4F854314FF44170EAE7684600F0C3
:10690000A7F9054610B300F1FF3A0DF10103164F48
:10691000E94653FA8AFAA64604AE97E80F0019F83A
:1069200001CB86E80F000CF00F080DF1200BD844C6
:106930000BEB1C1C18F8108C1CF8103CAEF85681A0
:10694000D145AEF854310EF1040EE6D16800C0B264
:106950000130400040F44070BBE70020BCE700BFBE
:1069600054670020A668002050590600024B53F8D7
:10697000200000B100697047E868002030B4094C7D
:10698000BDF8085054F8204044B1646934B1084659
:10699000A44611461A462B4630BC6047002030BC46
:1069A000704700BFE868002030B4084CBDF80850BC
:1069B00054F8204044B1A46934B10846A4461146B5
:1069C0001A462B4630BC604730BC7047E868002050
:1069D00000207047024B186808B190F860007047BB
:1069E000F06800202DE9F843234C2568002D3CD0A9
:1069F0001E462C2303FB00531746D3F820908846ED
:106A00000446B9F1000F32D048463CF0D4FA2C23AA
:106A100003FB0454D4E90954DFF864C0174B082879
:106A20000246494628BF08224046002D08BF654659
:106A3000002C08BF1C463BF0FAFA28463CF0BBFA93
:106A400010280246294628BF102238463BF0EFFAAC
:106A500020463CF0B0FA042802462146304628BFC2
:106A60000422BDE8F8433BF0E2BABDE8F883DFF862
:106A700014900820CBE700BFF0680020A059060062
:106A8000905906008459060070B5104E3368D3B192
:106A90002C2404FB0034054662691AB19047336820
:106AA00084F832002C2202FB053393F8324014B1F3
:106AB0000124204670BD284623463A22022101F0D7
:106AC00049F8204670BD1C46204670BDF068002085
:106AD000074B1B6853B110B42C2404FB0030C46A6C
:106AE000038E0C6013805DF8044B7047704700BF45
:106AF000F068002008B520220023052101F02AF8C3
:106B00004FF0FF3008BD00BF30B4094C24685CB1C1
:106B10000D4611462C2202FB0044E46924B11A46BA
:106B20002846234630BC1847012030BC704700BFC0
:106B3000F068002030B4094C029A246854B10D4624
:106B40002C2101FB0044A46824B1194628462346A1
:106B500030BC18474FF0FF3030BC7047F068002061
:106B600030B4094C029A246854B10D462C2101FB23
:106B70000044E46824B119462846234630BC18472F
:106B80004FF0FF3030BC7047F0680020044B1B68AA
:106B90002BB12C2202FB0030036903B11847704768
:106BA000F0680020054B1B682BB12C2202FB003043
:106BB000836903B118470120704700BFF0680020C7
:106BC00003F0D8BE00B5144B402283B083F82723CE
:106BD000002001F07FFF4FF0804302A80024D3F88B
:106BE000385400F8084D33F003FF02A80B4B40F86F
:106BF000043D33F04DFF33F05DFFEB0707D4002178
:106C00004FF0FF3002F0FEF9FFF762FBF7E7204696
:106C100003F0B0FEF3E700BF00E100E0C16B02004B
:106C2000002003F015BB00BF00B5002383B0032292
:106C3000CDE9002303490448C82232F0D3FB03B056
:106C40005DF804FBA4590600C56B020034F0EEBEEB
:106C50004FF08052536E1BBA0360136E1BBA436031
:106C60000820704700487047AC59060070B51E4CAC
:106C70002368D3B1012901D0012070BD1578C5F377
:106C80004115012D13D0022D0FD15478012C21D0A4
:106C9000022CF1D19388072B07D1144C114623897C
:106CA0002246BDE8704002F071BE002070BD5178F0
:106CB0002229E1D111465288003218BF01221A76EA
:106CC00002F04CFE2268136A002BD5D0107E984744
:106CD000284670BDDC69002CE7D011462378224697
:106CE000BDE8704002F052BEF4680020046000204D
:106CF00010B5044601F0D6FE08B9002010BD01F021
:106D0000D9FE0028F9D1044B4FF4567202FB04342B
:106D1000207900F0010010BDF8680020064A4FF409
:106D2000567303FB00230833186808609A889B7920
:106D30008B718A80704700BFF868002008B5044A4C
:106D40004FF4567303FB0020103001F00DFD08BD19
:106D5000F86800202DE9F0414FF4567505FB00F569
:106D60001A4E4FF6FF734FF6FE7005F11004824283
:106D700088BF1A46344492B2204601F01FFD0746F0
:106D8000204601F009FD3F2802D83846BDE8F081D1
:106D900006EB0508002098F8031002F093F800288D
:106DA000F3D0204601F0F8FC3F2805D898F80310EE
:106DB000002002F097F8E8E705F53672324498F8BB
:106DC00003104023002002F09DF8DEE7F868002061
:106DD000034A4FF4567303FB0020103001F058BDF6
:106DE000F86800202DE9F8434FF4567606FB00F6CC
:106DF000254F4FF6FF734FF6FE7006F124048242D2
:106E000088BF1A463C4492B2204601F07BFD0546FD
:106E1000204601F0A9FC3F2802D82846BDE8F883A7
:106E200001F040FE0028F8D001F044FE8046002822
:106E3000F3D1204601F098FC0028EED007EB0609BC
:106E4000404699F8021002F03DF80028E5D006F51A
:106E50004676374420463946402201F0AFFC0346CF
:106E600068B13A4699F80210404602F04BF8002803
:106E7000D3D1064B1B68DB07CFD500BECDE799F811
:106E8000021002F02FF8C8E7F8680020F0ED00E0EB
:106E90002DE9F041054601F005FE10B90020BDE8DE
:106EA000F08101F007FE06460028F7D14FF4567432
:106EB00004FB05F4174F04F124053D44284601F076
:106EC00053FC0028EAD007EB0408304698F802107B
:106ED00001F0F8FF0028E1D004F546742744284665
:106EE0003946402201F06AFC044668B13A4698F8F7
:106EF00002103046234602F005F848B9064B1B68DD
:106F0000DB07CBD500BECAE798F8021001F0EAFF14
:106F10002046C4E7F8680020F0ED00E008B5044A18
:106F20004FF4567303FB0020243001F035FC08BDFC
:106F3000F8680020F0B51A4C83B000214FF4567267
:106F400020460E4601253BF096F8FF234FF4E13230
:106F500004F138016371A2602B460827009604F102
:106F600010004FF48072A77301F0C2FB2B464FF460
:106F7000807204F59C7104F12400009501F0B8FBC7
:106F800004F50E71284631F039FC04F522712062B7
:106F90002846E66131F032FCC4E90C0603B0F0BDCE
:106FA000F868002010B5094B002203F1240403F116
:106FB00010001A601A7101F031FD204601F02EFD1B
:106FC00020460121BDE8104001F048BDF8680020CE
:106FD0002DE9F0414B79022B82B004D000252846E0
:106FE00002B0BDE8F0818B79022BF7D1304EB37837
:106FF0002BB1304B1B68DB07F0D500BEEEE78B787A
:1070000033700C780C4407466378242B4FF0090545
:107010000BD1082A02D822E0AA4220D323781C44AC
:107020001D446378242BADB2F6D0052B2CD0042B55
:1070300015D163790A2B12D11F4A94F8008001926E
:10704000022301320092384604EB08011A4601F08F
:1070500091FE0028CDD00E3518FA85F5ADB217484F
:1070600001F09AFB3F28BAD9F178002001F02AFFFD
:107070000028B4D0114801F08FFB3F28F17811D8D7
:10708000002001F02FFFAAE72146384601F0F6FE66
:107090000028AED0A378737023781C441D44ADB291
:1070A0006378C4E7064A4023002001F02BFF96E7EF
:1070B000F8680020F0ED00E0FA6800200869002080
:1070C000D06B002038B5137803F06003202B01D07B
:1070D000002038BD264C938825789D42F8D15378FE
:1070E000203B032BF4D8DFE803F029200802012914
:1070F00031D0032934D0012038BD01292BD00329F8
:10710000F9D155881B482571E94301F0010101F0CF
:10711000A5FC194B002BEED0C5F3400205F0010190
:107120000020FFF739FA012038BD0129E3D11146CB
:107130000723124A02F02AFC012038BD0129F6D0AB
:107140000329D8D10E4B002BD5D00C490020AFF32A
:107150000080012038BD114602F000FC012038BD3E
:10716000084B002BC7D051880020AFF30080C2E746
:10717000F86800201C690020996502000069002061
:1071800000000000000000002DE9F047574CE278B5
:107190008A420D4607461E4656D19AB204F536710C
:1071A00004F1100001F0AEFB514BD3B16379FF2B1A
:1071B00017D0B6B104F2D72808EB060AA8F2C729FF
:1071C00002E0C2450DD0637918F8012F9A42F8D138
:1071D000484601F0D9FA0028F3D16179AFF3008075
:1071E000EFE7444B23B1444801F0CEFA00285DD0CC
:1071F000414801F0D1FA3F285BD8A378AB4203D0D5
:1072000001252846BDE8F0873C4B13B10020AFF3C1
:10721000008001F047FC20BB394801F0A5FA0028A6
:10722000EED1002EECD016F03F06E9D1A178384619
:1072300001F048FE05460028E2D0A17838463346E2
:10724000324601F05FFEDCE7A3788B42DCD02D4BA9
:107250001D6815F00105D4D000BE00252846BDE804
:10726000F08701F027FC05460028D5D1244801F01D
:107270007BFA0028D0D0A178284601F023FE002810
:10728000CAD021494022A1F53D7001F097FA03468A
:1072900038B328461C4AA17801F034FE0028AFD14B
:1072A000184B1B68DB07B7D500BEB5E725F00EFA13
:1072B0009EE7E178002001F005FE00289DD00E48F1
:1072C00001F06AFA3F2804D8E178002001F00AFEB4
:1072D00093E740230D4AE178002001F013FEA378E4
:1072E0008CE7A17801F0FEFD96E700BFF86800206A
:1072F00000000000CDC60400086900200000000066
:107300001C690020F0ED00E0106C0020D06B002024
:107310004FF48C72002101483AF0ADBE506C002051
:107320004FF48C72002101483AF0A5BE506C002049
:107330002DE9F04F4B79032B83B004D00024204675
:1073400003B0BDE8F08F0B79C3EBC3041234A4B2D1
:10735000944206D8304E7778002F57D096F88D207B
:107360002AB12E4B1B68DA07E8D500BEE6E74FF0DE
:107370008D0B4FF08E0E8C274FF001080A7801EB31
:10738000020C9CF80150212DEBD14FF08C0909FB28
:1073900008698A46C9F888C0895C054606EB0E0272
:1073A00006EB0B000190009261441A462846032325
:1073B00001F0E0FC0028D4D09AF80630012B04BF7D
:1073C0009AF8073089F803308C2303FB08F806EBA2
:1073D000080301221A719AF8022006F80820D3F84F
:1073E00088209978B2F80720DA800029A7D007F121
:1073F000480232442846402301F084FD00289ED1F3
:10740000064B1B68DB079AD500BE98E7B8464FF0DD
:10741000010B4FF0020EB1E7506C0020F0ED00E0E0
:107420002DE9F04F137803F01F06012E83B003D02F
:10743000002003B0BDE8F08FDFF81482978898F839
:107440000040FFB2BC4200F0B58098F88C40BC42CE
:10745000EED13746B4464FF0900A4FF094094FF002
:10746000D40E4FF0910B13F060030C460546164600
:1074700004D1012900F0A9800120DAE7202BD7D11F
:107480005378013B0A2BD3D801A252F823F000BF56
:10749000697502005F7502004975020031740200CF
:1074A0003174020031740200317402003174020040
:1074B0000B750200E1740200BD74020001291ED0A8
:1074C0000329D9D171885F4B8C2606FB0786C9B288
:1074D0003171002BD0D06046AFF300800120A8E7C7
:1074E0000129C9D17188584A8C2303FB0787090AEF
:1074F000797122B16046AFF30080002898D0314600
:10750000284602F02BFA012093E7012900F085803C
:107510000329B1D1F4887188402C4FEA112220460A
:1075200028BF402011F0FF0108EB0E0307D0012C0B
:1075300005D91C788C4202D1013880B20133009009
:107540006046FFF731FA97E7012995D108EB0A0267
:1075500031462846234602F019FA204669E70129F8
:107560008AD108EB0B02F3E7012985D1F3887188F2
:10757000402B4FEA1122184628BF402011F0FF018E
:10758000C84455D0012B53D9013880B288F8001077
:1075900008F1010300906046FFF7F0F90444A3B23C
:1075A000002B48D1294A1268D2077FF541AF00BEAF
:1075B00018463EE70027BC464FF0040A4FF0080982
:1075C0004FF0480E4FF0050B4DE75378062B7FF434
:1075D0002FAF53881B0A212B10D0222B7FF428AF0A
:1075E0006046FFF7C3F98C2303FB07870246314649
:1075F0002846FB8802F0CAF920461AE78C2303FBD1
:107600000787D7F88820002A3FF412AF1378314655
:1076100003B0BDE8F04F02F0B9B9F388402B3FF654
:1076200007AF08EB0E02314602F0B0F9204600E742
:1076300043460024AEE742463146284602F0A6F90A
:107640000120F6E60000000000000000F0ED00E080
:10765000506C0020F0B5224CA67865788E4283B03D
:10766000074612D0A94235D094F88E0094F88D5078
:10767000884231D08D4221D01A4B1B68DA0702D4E0
:10768000002003B0F0BD00BEFAE700208D4217D005
:1076900000229BB204F14805114600932B46FFF7E8
:1076A00083F92A46A1783846402301F02BFC70B9B3
:1076B0000C4B1B68DB07E3D500BEE2E78C340120EE
:1076C000094A22B19AB204F10801AFF30080012007
:1076D00003B0F0BD0020F3E78C340120D6E700BFF3
:1076E000506C0020F0ED00E00000000030B5154CBB
:1076F00083B000210D464FF4167220463AF0BBFCD1
:1077000004F1380104F1100000950123802200F0FB
:10771000EFFF0123802204F1B801009504F1240059
:1077200000F0E6FF04F59C71012031F067F804F5E4
:10773000C47120620120E56131F060F8C4E90C05F4
:1077400003B030BD1CC5002010B5084C002304F167
:107750001000C4E90033C4E9023301F05FF904F119
:107760002400BDE8104001F059B900BF1CC500203D
:107770002DE9F0474B79012B03D000242046BDE8CA
:10778000F0878B79012BF8D1CB79002BF5D10B78D1
:10779000CD1899B26C78242C0BD1914202D9ECE728
:1077A0008A42EAD32B781D440B446C78242C99B27E
:1077B000F6D0042CE1D16B79012BDED1AB79032B10
:1077C000DBD1EB79002BD8D1DFF8B88098F8013005
:1077D00013B998F802702FB1274B1B68DB07CCD583
:1077E00000BECAE7AB7888F800302E7892462A7936
:1077F0008B1981469CB22E4432B91FE033789742F0
:107800001C44A4B21E4419D2A24517D37378052B89
:10781000F4D13146484601F031FB0028DCD0B37882
:10782000DA0914BF88F8013088F8023033782A79F1
:1078300001371C44FFB2A4B21E44DFE70F4800F03A
:10784000ABFF3F289AD998F80210002001F03AFBCC
:10785000002893D0094800F09FFF3F2898F80210B5
:1078600003D8002001F03EFB88E7054A40230020B2
:1078700001F048FB82E700BFF0ED00E02CC50020DE
:10788000F4C600201CC5002000207047F8B53D4C10
:10789000A2788A421F4613D19AB204F5EC7104F122
:1078A000100001F02FF8384B13B10020AFF3008027
:1078B000364800F071FF3F282CD801252846F8BD36
:1078C00063788B4208D0324B1D6815F00105F5D066
:1078D00000BE00252846F8BD064604F1240000F04D
:1078E00043FF40BB2B4800F03FFF0028E5D1002FAD
:1078F000E3D017F03F07E0D16178304601F0E2FABB
:1079000005460028D9D0617830463B463A4601F01A
:10791000F9FAD3E7A178002001F0D4FA054600284F
:10792000CBD01A4800F038FF3F28A17820D800209B
:1079300001F0D8FAC2E76178002001F0C3FA00280C
:10794000D0D0402204F5067104F1240000F036FF87
:10795000034698B104F506726178002001F0D2FA6E
:107960000028AAD10A4B1B68DB07BBD500BEB9E7CC
:10797000094A4023002001F0C5FA9FE7617801F031
:10798000B1FAAFE71CC50020000000002CC50020A4
:10799000F0ED00E040C50020F4C6002030B4114BEB
:1079A0009C689A6B93F83C5083F82C10A21A022121
:1079B00083F830109A6225B942F2050183F83E50EF
:1079C000998744B13AB11A7BD20906D193F82F10A6
:1079D00030BC01F0D7BA30BC704793F82E1030BCE1
:1079E00001F0D0BA686F002038B5214B214C054614
:1079F0001BB1607BFFF7D6F8A8B1A06BA36894F821
:107A00002F101D4A1B1AB3F5007F28BF4FF40073D7
:107A100028469BB201F076FA20B9184B1B68DB07A9
:107A200000D500BE38BDA268A36B84F83E0042F2C8
:107A30000771D31A0120A1870221A36284F82C00C8
:107A400084F83010002AEDD0002BEBD0237BDB092B
:107A500006D194F82F102846BDE8384001F092BABC
:107A600094F82E102846BDE8384001F08BBA00BFCC
:107A7000A56B0200686F0020686D0020F0ED00E04B
:107A800070B5314CE28AA36852BA92B286B005460C
:107A900012B1B3FBF2F292B2A66BD4F81110607B74
:107AA0009B1BB3F5007F28BF4FF4007309BA009306
:107AB000B6FBF2F302FB13621944244BFFF73AF8CA
:107AC000031E22DB94F82E200DD011469BB22846CF
:107AD0001E4A01F017FAB0B91D4B1B68DB0712D51F
:107AE00000BE06B070BD0724194603A8CDF80E30BD
:107AF000ADF812308DF80C508DF8102005938DF8EC
:107B00000D4001F071F806B070BDA268A36B43F69A
:107B100002200021D31AA08784F83E100120022100
:107B2000A36284F82C0084F83010002AEBD0002BDC
:107B3000E9D0237BDB0914BF94F82E1094F82F10A2
:107B4000284601F01FFADEE7686F0020686D00200C
:107B5000F0ED00E010B4054C012084F83C1084F8EE
:107B60003D2084F83E305DF8044B7047686F00207C
:107B70004022002101483AF07EBA00BF686F002021
:107B80004022002101483AF076BA00BF686F002019
:107B90004B79082B01D0002070478B79062BFAD146
:107BA000CB79502BF7D1162A06D81C4B1B68D90766
:107BB000F1D500BE0020704770B5194D8B7885F85F
:107BC0002D300B7882B005F12F0205F12E061944F5
:107BD0000223CDE900261A46044601F0CBF848B945
:107BE0000E4B1B68DA0702D500BE02B070BD002044
:107BF00002B070BD20461F2300242A4695F82F109E
:107C000085F8304001F07EF930B9044B1B68DB0782
:107C100002D500BE1720E8E71720E6E7F0ED00E008
:107C2000686F0020012901D00120704770B51378DA
:107C300003F07F01022984B0054606D003F06003FB
:107C4000202B1AD0002004B070BD5478012CF5D13F
:107C50005388002BF6D1404E918896F83030042B93
:107C6000C9B272D096F82E208A423DD096F82F40A5
:107C70008C4250D0012004B070BD5378FE2B16D03A
:107C8000FF2BDFD15388002BDCD1D488A3B2002B8B
:107C9000D8D1314E1146284686F83030C6E90D332A
:107CA000B48786F83E3001F059FE0120CBE75388B7
:107CB000002BC7D1D388012BC4D128498DF80F30B0
:107CC000002946D00192FEF785FE019A0028B9D01E
:107CD000431EDBB204AC114604F8013D284622469F
:107CE000012301F053FEC5E7022BC3D1B46BB36887
:107CF0001B1B11460324B36206F120020D2386F8F4
:107D0000304001F0FFF80028B4D1154B1B68DB07A9
:107D100098D500BE97E7002BACD1214601F024F99D
:107D20000028A7D12146284601F00AFE0028A1D14B
:107D3000002386F83030284696F82F10064A1F2375
:107D400001F0E0F80028E0D094E701F01BF92046AC
:107D500079E70B46BEE700BF686F0020D5690200D7
:107D6000F0ED00E02DE9F041AB4C94F83050012DDE
:107D70008EB01E46074645D02BD3032D05D0022DCD
:107D800060D001200EB0BDE8F08194F82E308B4217
:107D9000F7D10D2EF5D1E37B282B00F035812A2B6E
:107DA00040F028819D4B13B1607BFEF7EFFE002071
:107DB00084F830001F23984A94F82F10384601F0B9
:107DC000A1F8002878D1964B1B68DA0777D500BE5A
:107DD000D8E794F82F208A42D3D11F2B03D1914B9F
:107DE000216899426DD0042394F82E1084F8303025
:107DF000384601F0C7F8384694F82F1001F0C2F861
:107E00000020BFE7E27BA36B282A12D02A2A00F0C9
:107E10009180217B626B1E44CB09A6637DD0964284
:107E20000DD27F4B1B68DB0746D500BE94F830505F
:107E3000A5E7626B1E449642A663C0F0CB80022386
:107E400084F8303094F82E10384601F079FD00287F
:107E500097D1A368A26B94F82E10934202D9207B8D
:107E6000C00956D19A1A0325A26238460D236E4ADC
:107E700084F8305001F046F80028A4D081E76B4B1D
:107E8000002B00F0FF81E17C3046C1F3400301F09C
:107E900001020909FEF738FE002840F0F38194F84A
:107EA0003C302BB943F602220023A28784F83E30EF
:107EB00001213846FFF772FD94F830505FE700204B
:107EC00060E75B4BE07B6168236200236162A36231
:107ED000012184F82C30A3632828A36884F830108B
:107EE000636300F0CE802A2860D0002B00F022814E
:107EF000217BC90940F01E81B3F5007FD8D8114617
:107F00009BB24C4A384600F0FDFF00283FF45BAFBF
:107F1000D2E7384601F036F833E793B2607B454A42
:107F200004F10F01FEF7E6FD0028C0F28980A66B80
:107F3000626B74E7E28A52BA92B21AB1A168B1FBDD
:107F4000F2F292B2D4F811103A4DB3FBF2FC09BA36
:107F500002FB1C32607B009661442B46FEF700FE5C
:107F60000028C0F2C380864239D9361A40B1A36BCB
:107F7000291813FA80F332462846A3633AF062F8D0
:107F80000023CDF81630194694F82F20ADF81A309A
:107F900005A807238DF8147007968DF818208DF822
:107FA000153000F021FE94F83050E8E6E18A49BA35
:107FB00089B2002B69D0257BED0940F08C80002927
:107FC00000F00082B3FBF1F1002900F023822828A1
:107FD00038460CD1FFF754FD94F83050CFE6D4E981
:107FE0000D231E449642A663BFF429AF3846FFF71F
:107FF000FBFC61E7104B002B3FF4D9AE04F10F01FD
:10800000607BAFF30080D2E60C4B002B3FF4CFAE89
:10801000607BAFF30080CAE6686F00208D6B0200C2
:10802000F0ED00E055534243886F0020096B0200D9
:1080300055534253686D002000000000000000000E
:10804000A368A66B94F83C1084F82C509A1B02206D
:10805000A26284F8300021B942F2050084F83E1093
:10806000A087002B3FF464AF002A3FF461AF237B6D
:10807000DB0940F0BC8194F82F10384600F082FFF5
:1080800055E7E18A49BA89B20BBB00293FF4D7AE64
:1080900094F83C00A362022184F82C1084F830107C
:1080A00000287FF4CFAE42F205000021A08784F8BB
:1080B0003E10002B3FF4C6AE237BDB0940F08F81DE
:1080C0001146384600F05EFF94F8305057E6257BA5
:1080D000ED097FF474AF94F83C00A362022184F8A8
:1080E0002C1084F830100028DDD0E5E7A36BA268DF
:1080F0001E4443F602200021931BA08784F83E1003
:1081000001200221A663A36284F82C0084F83010B9
:10811000002A3FF497AE002B3FF494AE237BDB099B
:1081200040F05D8194F82F10384600F02BFF94F852
:10813000305024E6667B252800F2328101A353F8F3
:1081400020F000BF79820200A1830200A183020017
:1081500027830200A1830200A1830200A183020001
:10816000A1830200A1830200A1830200A183020077
:10817000A1830200A1830200A1830200A183020067
:10818000A1830200A1830200A1830200D782020022
:10819000A1830200A1830200A1830200A183020047
:1081A000A1830200A1830200A18302008F8202004A
:1081B0007F7E0200A1830200A1830200A18302004E
:1081C000A1830200A1830200A1830200A183020017
:1081D0002D820200A1830200DD810200304604AA44
:1081E00005A9FEF775FC059B002B00F00881BDF882
:1081F0001020002A00F00381013B8B491BBA12BA00
:10820000C1E900320820A368002B3FF451AE984228
:1082100028BF184683B26063834A94F82E1038460C
:1082200000F070FE00283FF4CEAD45E605AD00231A
:108230000DF10E02304604A96B600593AB60FEF7AA
:1082400047FC049A002A00F0DA80BDF80E30002BBB
:1082500000F0D58012BA5BBA08200221ADF81E30BA
:1082600006928DF817008DF81C1095E807006E4BEC
:1082700083E807000C20C6E73046FEF705FC00281F
:108280003FF40DAEA368002B3FF4D9AD10E69DF886
:1082900016306649002203F0800362F3C7138DF89D
:1082A000163003238DF815208DF817208DF8143023
:1082B000002900F0B1803046FEF774FC9DF81630BE
:1082C000594A80F0010060F3C7138DF81630059B02
:1082D0001360042097E74FF0203302250022CDE9F8
:1082E0000522304607A909AA08934FF0800C07938E
:1082F00009930D93CDE90A330C931F260DAB8DF82E
:1083000016508DF8175005AD8DF818608DF815C012
:10831000FEF768FB0FCD444E0FC60FCD0FC62B687E
:10832000336024206FE794F83C2094F83D0094F8E3
:108330003E10DFF8F4C0DFF8FCE04FF000084FF02B
:108340000003CDE90588CDE9078862F303038DF8C2
:108350001630F0220A23ADF824808DF820008DF825
:1083600021108DF814208DF81B3005AD0FCDACE831
:108370000F002B68ACF80030BEF1000F4ED0ACF10E
:10838000100130464FF40072AFF300800028A4F8CB
:108390003C8084F83E8008DB00283FF473AF32E76E
:1083A00094F83C30002B7FF483ADA38E1E4A204905
:1083B000607BFEF79FFB0028FFF67AAD00283FF4B4
:1083C00061AF20E7012194F83C0084F82C100221D1
:1083D000A36284F8301000287FF46BAE63E694F853
:1083E0002E10384600F0CEFD94F83050C7E494F8D3
:1083F0002E10384600F0C6FDD4E90D260FE594F89E
:108400003C30002B7FF454AD43F6022284F83E301A
:10841000A2874DE50221D6E701204FE7A4F83CE012
:1084200084F83EE01220EEE6686D0020A56B0200A5
:10843000776F0020000000002DE9F041054600F0B4
:1084400031FB10B90020BDE8F08100F033FB064697
:108450000028F7D14FF4E67404FB05F4174F04F13C
:1084600018053D44284600F07FF90028EAD007EBC4
:108470000408304698F8011000F024FD0028E1D0EF
:1084800004F5C674274428463946402200F096F980
:10849000044668B13A4698F801103046234600F089
:1084A00031FD48B9064B1B68DB07CBD500BECAE7D8
:1084B00098F8011000F016FD2046C4E7A86F0020D0
:1084C000F0ED00E030B5154C83B000210D464FF4BF
:1084D000E672204639F0CFFD04F12C01201D0095F5
:1084E0000123402200F004F90123402204F16C0131
:1084F000009504F1180000F0FBF804F1AC01012034
:1085000030F07CF904F1FC0160610120256130F05C
:1085100075F9C4E9090503B030BD00BFA86F00209C
:1085200010B5064C2046002340F8043B00F076FAD4
:1085300004F11800BDE8104000F070BAA86F0020E8
:108540004B79FF2B01D0002070472DE9F0412C4ED4
:10855000737882B00BB9B3781BB1002002B0BDE8CC
:10856000F0810C780F798B7833700D460C44002F16
:1085700039D06378052B0AD0A3189C4202D306E0B9
:10858000A34204D921780C4461780529F8D1DFF899
:108590007880CDF8048008F1010300933A46022365
:1085A000214600F0E7FB28B9164B1B68DB07D4D542
:1085B00000BED3E72B79B178C3EBC3031C4469B188
:1085C000002000F07FFC48B108F1030000F0E4F85F
:1085D0003F280DD8B178002000F084FC737813B1E7
:1085E0000020FFF729FF601B80B202B0BDE8F081D8
:1085F00008F24B124023B178002000F083FCEDE735
:10860000A86F0020F0ED00E0A96F002070B5304C9D
:10861000A078884210D062788A420BD12D4A1AB1D4
:1086200099B20020AFF3008000F03CFA00BB0125B6
:10863000284670BD0025FBE79AB204F5A671201DFF
:1086400000F060F9244B13B10020AFF30080A17853
:10865000002000F037FC05460028E8D01F4800F055
:108660009BF83F28A17829D8002000F03BFCDFE7E9
:1086700000F020FA06460028D9D1194800F074F815
:108680000028D4D06178304600F01CFC0546002854
:10869000CDD014494022A1F5BA7000F08FF861786E
:1086A000034688B10F4A304600F02CFC0028BED1AA
:1086B0000D4B1B68DB07BAD500BEB9E70B4A402358
:1086C000002000F01FFCB3E700F00CFCB0E700BF97
:1086D000A86F00200000000000000000AC6F002028
:1086E000C06F002034710020F0ED00E0F470002035
:1086F0002DE9F041B2F5004F9DF8188030D80446BE
:10870000C0681E460F46154618B14FF0FF3130F0D5
:108710001BFB206918B14FF0FF3130F015FBE288E8
:10872000E068276066F30E02C2F30721002368F3B6
:10873000C711E2806381A580E171238118B11A46D7
:1087400019462FF081FE206938B100231A461946D8
:108750002FF07AFE0120BDE8F0810120BDE8F08114
:108760000020BDE8F08100BF03894289808892B271
:108770009BB2934236BFC2EB40029B1A9B189BB23E
:10878000984228BF18467047028943899BB2981ABD
:10879000B0FA80F04009704703894289808892B21C
:1087A0009BB2934236BFC2EB40029B1A9B189BB20E
:1087B000984286BFC01A80B2002070472DE9F84366
:1087C000054600690E46174618B14FF0FF3130F0EC
:1087D000BBFA2B896989A8889BB289B28B4236BFC4
:1087E000C1EB40045C1AE418A4B2002C4AD0A042A9
:1087F00006D283422CBF191A191889B2698104461E
:10880000BC4228BF3C468842A4B203D8091A89B2A8
:108810008842FBD9EA882B68401AC2F30E0887B257
:108820001FFA88F2BC4202FB013125D917FB08F977
:108830001FFA89F94A46304639F0F9FBE21B12FB70
:1088400008F206EB090092B2296839F0F0FB6A8958
:10885000A88892B211198BB29A4215D940001B1AFE
:108860009BB228696B8120B100231A4619462FF06C
:10887000EBFD2046BDE8F88302FB04F2304639F0F8
:10888000D6FBE4E769898BB240008342E9DBE6E787
:1088900038B5054600690C4618B14FF0FF3130F08D
:1088A00053FA29896B89AA8889B29BB2994236BF4B
:1088B000C3EB4200C81A401880B200B3824209D20A
:1088C00091422CBF8B1A8B189BB29A426B8103D8B2
:1088D0009B1A9BB29A42FBD9EA882968C2F30E021E
:1088E000204602FB031139F0A2FB0124286920B1C4
:1088F00000231A4619462FF0A7FD204638BD04462E
:10890000F4E700BF2DE9F047144612B92046BDE850
:10891000F0870546C0680F4618B14FF0FF3130F0C0
:1089200013FAE9792E896A89AB88C909B6B292B27D
:1089300031D1964236BFC2EB4302B21A921992B2BB
:108940009A4231D29A1A92B29442E98828BF1446C8
:10895000C1F30E089E42304603D3C01A80B298423B
:10896000FBD21B1A2A681FFA83F9A14508FB0020D5
:1089700026D308FB04F2394639F059FBA3199BB200
:10898000AA88B3424FEA420201D3934201DB9B1A09
:108990009BB22B8109E0E9889C42C1F30E0822D3E7
:1089A000E41A08FB0477ABBB0024E8680028ADD0CC
:1089B00000231A4619462FF047FD2046BDE8F087F0
:1089C00019FB08FA1FFA8AFA5246394639F02FFB8A
:1089D000A4EB090212FB08F207EB0A0192B2286825
:1089E00039F025FBCAE7964210D25800811A31446B
:1089F00089B221448142ADDBD618361BB6B2B242F1
:108A000001D8B042A6DC361AB6B2A3E7B11A89B2D1
:108A10005800EEE716461C469AE700BF10B504461C
:108A2000C06818B14FF0FF3130F08EF9206918B1ED
:108A30004FF0FF3130F088F9E06800236381238133
:108A400018B11A4619462FF0FFFC206920B1002307
:108A50001A4619462FF0F8FC012010BD38B504461F
:108A6000C0680D4618B14FF0FF3130F06DF9206944
:108A700018B14FF0FF3130F067F9E379E06865F342
:108A8000C713E37120B100231A4619462FF0DCFC0E
:108A9000206920B100231A4619462FF0D5FC012089
:108AA00038BD00BF024B5878003018BF0120704716
:108AB000CC710020024B1878C0F38000704700BFD3
:108AC000CC710020024B1878FF3818BF0120704786
:108AD000146100202DE9F043384C2378FF2B83B03C
:108AE00003D0012003B0BDE8F08337220021054602
:108AF000334839F0C0FA334901202FF07FFE324B62
:108B0000186000283AD0314F3B46002633F80C0B52
:108B10007A68798800962FF0F3FBB968064630F042
:108B2000EDFA2B4B1E60002E40D02A4B23B12A4871
:108B3000AFF30080294B1860274EDFF8A880327809
:108B4000264F4FF000094B460EE0386810EBC1038A
:108B500025D01B689847327809F101095FFA89F935
:108B6000111D49454B4611DB9B1A4A4509EB49014A
:108B700003EB4303E9D808EBC303EAE7184B1B6890
:108B8000DC0701D500BEADE70020ABE72846257025
:108B900001F030F9284601F02FF90120A2E7104A30
:108BA0001268D207F0D500BE18469BE70C4B1B6835
:108BB000D907E9D500BE304694E700BF1461002014
:108BC000CC7100207C71002004720020B86000206D
:108BD00008720020000000007871002074710020ED
:108BE000F0ED00E0E85906002DE9F0434378023B40
:108BF00085B080468946032B7DD8DFE803F03A58DC
:108C00002402564B1A78D1071AD51A7854496FF3B3
:108C100082021A700868B9F1000F21D004AA00235B
:108C200042F80C3D41462FF057FE019B43B14D4B9E
:108C30004FF080525A6040BFBFF34F8FBFF36F8F2A
:108C400005B0BDE8F083454B1A78D007F8D51A78FF
:108C5000434942F004021A700868B9F1000FDDD1EF
:108C60004B4641464FF0FF322FF0EEFB05B0BDE81A
:108C7000F0833A4A3A49137808686FF30003137097
:108C8000117800236FF3410111705370117863F371
:108C900082011170B9F1000FE2D004AA414642F8F6
:108CA0000C3D2FF019FE019B002BC0D1C8E72E4DC3
:108CB0002E4F28782E4E0024214609E0326812EB10
:108CC000C3020ED10134E4B2031DA342214617DBD7
:108CD000A04204EB4403F1D8091A01EB410107EB70
:108CE000C1025369002BEDD098F80000D8F80410A9
:108CF00098472878E6E71A4B186800298ED1AFE725
:108D0000164B1A7852079BD51A7815496FF38202D1
:108D10001A7098F800308DF8043005220023CDF841
:108D20000A30CDF80630ADF80E3008688DF8052011
:108D3000B9F1000F06D14B464FF0FF3201A92FF0D9
:108D400083FB7DE704AA01A942F8103D2FF0C4FD82
:108D5000009B002B3FF474AF69E700BFCC7100208B
:108D60000872002000ED00E078710020E85906004C
:108D7000747100202DE9F84F0A9F002A4BD00C4651
:108D8000497805290ED1E67806F00306B34209D1E9
:108D9000A37803F07F03082B0DD9204B1B68DA075B
:108DA00000D500BE1D4B1B68DB0702D40020BDE8C8
:108DB000F88F00BEFAE7DFF868A0DFF868909AF84D
:108DC00000B0904600250EE06378052BEAD1E378E9
:108DD00003F00303B342E5D1A37803F07F03082B2C
:108DE000DBD89AF800B099F80210204601F0E2FFB3
:108DF0000028D2D05846214601F016F80028D1D0DC
:108E0000A378DA0916BF0B9A3B70137023780135EB
:108E100045451C44D8D10120BDE8F88FF0ED00E0B5
:108E200014610020CC71002030B5124D85B00023B4
:108E3000082402900193039128688DF8054092B1AF
:108E400004AA01A942F8103D2FF046FD009B43B152
:108E5000094B4FF080525A6040BFBFF34F8FBFF3B2
:108E60006F8F05B030BD134601A94FF0FF322FF0D0
:108E7000EBFAF6E70872002000ED00E038B58B78D9
:108E800003F07F03082B06D90B4B1B68DB0700D5CB
:108E900000BE002038BD094A094B0C462046917897
:108EA0001D7801F087FF0028EED021462846BDE856
:108EB000384000F0B9BF00BFF0ED00E0CC710020F9
:108EC00014610020CB09253301F07F010348044AD7
:108ED00003EB41010844116801F022BFCC7100206E
:108EE00004720020CB09253301F07F010348044AB6
:108EF00003EB41010844116801F03EBFCC71002032
:108F00000472002038B5154C01F07F0504EB4504D0
:108F100004EBD11420346079C00706D5104B1B68D0
:108F2000DA0700D500BE002038BD65790D4845F050
:108F300001050078657101F04FF80028F4D16379DC
:108F4000074A60F300036371637960F3820363711E
:108F50001368DB07E7D500BE38BD00BFCC71002029
:108F6000F0ED00E014610020054B01F07F0203EBFF
:108F7000420303EBD11191F8250000F00100704786
:108F8000CC71002010B50D4C01F07F0204EB4204BF
:108F900004EBD11494F825309B0700D510BD084B85
:108FA0002034187801F012F9637943F002036371F9
:108FB000637943F00103637110BD00BFCC710020E1
:108FC0001461002010B50D4C01F07F0204EB420447
:108FD00004EBD11494F825309B0700D410BD084B46
:108FE0002034187801F01AF963796FF34103637143
:108FF00063796FF30003637110BD00BFCC71002073
:1090000014610020BE4B1B78FF2B00F0ED812DE991
:10901000F04F04468DB04FF47A7200238002A10D08
:1090200038F08CFDB74DDFF8F8B2B74F8246661CBA
:10903000286800F04581002C00F04281BAF1000F51
:1090400014BF5246012209A92FF0ECFCC0B19DF8D3
:109050002530013B072B00F22C81DFE813F0D10013
:1090600005012A01F600C5004300140008000A9B10
:109070000BB10B989847286830F012F80028D6D129
:109080000DB0BDE8F08F9DF82810A04B01F07F06D1
:1090900003EB460303EBD11393F825006FF30000B5
:1090A00083F8250093F825006FF3820083F82500EC
:1090B000002E00F09181964ADB7C12789342C0F03A
:1090C0006F81101D9842C0F272819B1A03EB43031B
:1090D0000BEBC3031E699DF829200B9B9DF8240010
:1090E000B047C8E7894E9DF82490337843F00103D8
:1090F000337096F825306FF3000386F8253096F824
:1091000025306FF3820386F8253096F826306FF30A
:10911000000386F8263096F826306FF3820386F82F
:109120002630002000F09CFC9DF8283003F06002FF
:10913000602A00F0D580402A00F0408103F01F0330
:10914000012B00F07581C0F05081022B40F0C880E7
:109150009DF82C1001F07F03082B00F2C18058000D
:1091600033184FEAD11C6344DFF8A4E1DB7C9EF89E
:1091700000E07345C0F09B810EF10408984580F231
:10918000BE82002A40F0B18090469DF82930012B24
:1091900004D0C0F0BE82032B40F0A280BDF82A208C
:1091A0005AB9012B00F0C78233189C440CF12002FD
:1091B0009CF82530980740F11C82B8F1000F3FF46D
:1091C0005AAFD8F80C0000F04BFCD8F80C300AAAC3
:1091D000012148469847002000F042FC96F82630CE
:1091E000DB073FF548AF55E1484B1B78D9077FF5C2
:1091F00042AF484B002B3FF43EAFAFF300803AE75D
:10920000DFF80C819DF8246098F80010002399463F
:1092100011E03B6813EBC20300F0B6805B68304698
:10922000984798F8001009F101095FFA89F90A1DB9
:1092300091454B4676DC5B1A894509EB490203EB05
:109240004303E6D30BEBC303E8E7304B1A78D007B0
:109250007FF511AF304A002A3FF40DAF1878C0F304
:10926000C000AFF3008006E7DFF8A4809DF824601B
:1092700098F800100023994611E03B6813EBC203F5
:1092800000F088805B683046984798F8001009F134
:1092900001095FFA89F90A1D91454B465ADC5B1AB0
:1092A000894509EB490203EB4303E6D30BEBC30308
:1092B000E8E71A4B1B68DA077FF5DDAE00BEDAE699
:1092C0002246C0E6581EC0B2FDF7E6FA18B1437850
:1092D000022B00F08782114B1B68DB0700D500BE14
:1092E0000E4B1B68DE0700D500BE9DF82400002150
:1092F00000F06CFF80219DF8240000F067FFBAE6C3
:10930000146100200872002074710020CC710020CC
:10931000787100200000000000000000F0ED00E087
:10932000E859060037220021C34838F0A4FEC34A9A
:109330004FF0FF3353619361D36113841360536023
:109340009360D360136100F081FBBB4B9DF8282034
:109350009A7090E637220021B74838F08CFEB74A61
:109360004FF0FF3353619361D361138413605360F3
:109370009360D360136100F069FBB14B002B3FF4A5
:109380007AAEAFF3008076E6AE4B1B68D907DAD52C
:1093900000BED8E7AB4B1B68DA07ECD500BEEAE7A6
:1093A0003A6803EB430312EBC3037FF493AEA54B80
:1093B0001B68DC077FF564AE00BE61E6A2480028AA
:1093C00093D000F04DFB48460AAA0121FDF74EFC60
:1093D00000287FF450AE88E70B9B9DF829209DF86C
:1093E000240000F053FB46E67047202A00F0698114
:1093F000002A7FF475AF9DF82930092B3FF670AF36
:1094000001A252F823F000BF359502001995020021
:10941000E1920200FD940200E1920200E394020056
:1094200069950200E192020055950200BD95020087
:109430009DF82C300F2B3FF658AF3344834ADB782E
:10944000127893422BD3111D9942FFF64EAF9B1A0F
:1094500003EB43030BEBC306F06800F001FBF3687A
:109460000AAA01214846984700287FF404AE9DF8D7
:10947000283013F060067FF438AF9DF829300A3B9E
:10948000012B3FF632AF00F0EBFA9DF829300A2BA2
:1094900000F055810AA9484600F060FAEBE53E6805
:1094A00003EB430316EBC3063FF41FAFD4E703EB14
:1094B000430E3B6803EBCE08002A3FF466AEB8F1DA
:1094C000000F3FF412AFD8F80C0000F0C9FAD8F83A
:1094D0000C3048460AAA0121984700287FF4CBADFA
:1094E00003E70AA800F0C2FA48469DF82A1000F0E7
:1094F00089FC337843F002033370BCE5BDF82A30B1
:10950000012B7FF4F2AE3378484643F008030AA9F2
:10951000337000F023FAAEE5BDF82A30012B7FF45A
:10952000E4AE337848466FF3C3030AA9337000F002
:1095300015FAA0E53378990801F00201C3F340134E
:109540000CAA0B4322F80E3D484602230AA900F05C
:109550001DFA90E50CAA737802F80E3D48460123E7
:109560000AA900F013FA86E5BDF82A00030A5A1E7C
:10957000C0B20E2A3FF6B9AE01A151F822F000BFE9
:10958000AB9602008F9602007F960200EB920200DB
:10959000EB920200599602008F960200EB920200B5
:1095A000EB920200EB920200EB920200EB920200BF
:1095B000EB920200EB920200119602009DF82A3015
:1095C00003931A4673789A420BD07378002B40F0BD
:1095D000BF80039B002B7FF475AE194B0BB1AFF32B
:1095E00000809DF80C30737048460AA900F0B6F967
:1095F00041E5174B0192187800F0E8FD019A537984
:1096000043F002035371537943F001035371D4E5DE
:10961000104B002B3FF469AEFDF724FB02460028F7
:109620003FF45EAE484653880AA900F0AFF900281F
:109630007FF421AD59E600BFCC710020CF7100202E
:1096400000000000F0ED00E06D6C02007871002079
:1096500014610020656C0200AF4B002B3FF445AE57
:10966000AFF30080024600283FF43FAE484613782F
:109670000AA900F08BF900287FF4FDAC35E6BDF8AF
:109680002C10FDF70FF902460028EFD12DE6022B32
:1096900000F0A180A14B002B3FF427AEAFF3008078
:1096A0000246002A3FF41CAEBCE7FDF7F1F8122396
:1096B00002460AA9484600F069F900287FF4DBACAD
:1096C00013E69DF82C300F2B3FF60FAE3344944A2F
:1096D000DB781278934224D23E6803EB430316EB07
:1096E000C3063FF402AEF06800F0BAF9F3684846EA
:1096F0000AAA0121984700287FF4BDACF5E5A3EB49
:109700000E0303EB43030BEBC308002A7FF4DBAE2D
:109710003BE53318634420330CAA5B79C3F3400361
:1097200010E7111D9942FFF6E0AD9B1A03EB4303CE
:109730000BEBC306D7E74846FFF744FC3DE50CAA10
:109740000AA902F80E6D4846012300F01FF992E4C1
:10975000484600F0F7FBDFF8C881B3780293002396
:10976000019498F800101C460EE03B6813EBC00310
:109770002AD05B684846984798F800100134E4B254
:10978000081D8442234609DC5B1A8C4204EB44002A
:1097900003EB4303E9D30BEBC303EAE737220021D2
:1097A0006048019C38F067FC5F4A4FF0FF3353611B
:1097B0009361D3611384136053609360D36013612A
:1097C0009DF80830B37004E7584B019C1B68DB0719
:1097D000F6D500BEF4E7FDF75FF80246002A3FF435
:1097E0007FAD1FE7C2793378511161F304139211F1
:1097F00062F3451333704388CDF81890CDE901A486
:10980000C318059300F10908059B434546D998F80C
:1098100001300B2B03BF98F8003098F803A0984450
:109820004FF0010A98F80130042B2FD1059B3C4AD8
:10983000CDF81CA0A3EB080300219BB20491127881
:1098400089469A4615E00BEBC404524641460698F9
:10985000A3689847082809F1010201D9824528D256
:109860002F4B5FFA82F91A78CDF81090111D8945B7
:109870004FDC049B9145A3EB020409EB490104EB87
:109880004404E0D23C6814EBC104DED1274B1B68D2
:10989000DE07DDE901A47FF523AD20E5244BDDF8EB
:1098A0001890DDE901A4002B3FF49BAEAFF30080DC
:1098B00097E6DDF81CA0BAF1010F0AD1A3681D4993
:1098C0001D4A8B4208BF4FF0020A934208BF4FF077
:1098D000020A002109E098F80220134456FA83F3A3
:1098E000DA78FF2AD2D183F80390CBB2534501F145
:1098F0000101F0D302464B46044641460F4801F0B1
:109900008BFA074B049A1B7804339342A044BFF6AA
:109910007BAFDDE901A4DEE40000000000000000F0
:1099200078710020CC710020CF710020F0ED00E0B4
:1099300000000000D16F020071770200DF7100208B
:10994000054B01F07F0203EB420303EBD11191F8C9
:109950002500C0F340007047CC7100200A4630B4A7
:10996000094C496805461068234603C30023C4E92F
:10997000023392F900209A422846ACBF8021194652
:109980001A4630BCFFF7BEBACC720020F0B50E46C6
:109990002B4C496807463068A260254603C5002164
:1099A000E181F588AB4228BF2B4683B0A381ADB1DE
:1099B0003BB3002A3DD094F90000402B28BF402340
:1099C00000282CDB1F4A3846FFF79CFA98B91E4B3B
:1099D0001B68DB0712D500BE03B0F0BD96F900305E
:1099E000002BACBF8021002138462B462A46FFF7CA
:1099F00089FA0028EBD0012003B0F0BD002003B0AD
:109A0000F0BD94F90020002AACBF194680211A4607
:109A10003846FFF777FA0028D9D00120ECE7114645
:109A2000084801931A4638F002FB064A019B802140
:109A3000EEE7054B1B68D907E0D500BE1046CBE723
:109A4000CC720020E0720020F0ED00E0034B002219
:109A5000C3E90022C3E902221A617047CC720020D8
:109A6000014B1861704700BFCC7200200346064AC4
:109A70005968006810B41346002403C3C2E90244C5
:109A80005DF8044B704700BFCC72002070B5424CAB
:109A90002278C909B1EBD21F82B0064616D033B185
:109AA0003E4B1B68DA0743D4002002B070BD3C4B2C
:109AB00013B12146AFF300802369002B42D030461A
:109AC000354A03219847012002B070BD94F9002067
:109AD000A068002A08DB0028E6D01A463149019325
:109AE00038F0A5FAA068019BE589E2881D44ADB273
:109AF0001844AA42A060E58101D03F2B25D82369F4
:109B000023B1254A02213046984798B194F90020A4
:109B100000239A42ACBF8021194630461A46FFF70F
:109B2000F1F978B91D4B1B68DB07BDD500BEBCE75A
:109B300000BEB9E70146304600F048FB30468021C0
:109B400000F044FB012002B070BDA28994F900101E
:109B5000531B9BB2402B28BF402300290ADB9542B0
:109B60004FF0000112D00F4A3046FFF7CBF9002822
:109B7000D8D0E7E795420BD001461A460948019331
:109B800038F055FA8021074A019BEDE70A46EBE7DA
:109B900080210022E8E700BFCC720020F0ED00E059
:109BA00000000000E072002042DF704743DF704792
:109BB00044DF704712DF7047F0B5334CBFF35B8F63
:109BC000014604F590730125D3E84F2FC3E8405FA9
:109BD0000028F9D1BFF35B8F12F0FF0F48D108299D
:109BE00029D04E01A21954F806C028489388284F5E
:109BF00001F5947601EB810E50F82660D2889A1A0E
:109C000093B2B6B200EB8E0209B2B34228BF33461C
:109C1000C2F800C707EB8100C2F8043747F82150AB
:109C2000BFF36F8FBFF34F8F1A4B984218D0043B8E
:109C3000984215D0F0BD154BD3F8C024D1030FD4F2
:109C400094F80B1161B11449D4F80001C3F8A007CE
:109C5000C3F8A4270D60BFF36F8FBFF34F8FF0BD24
:109C60000023BFF35B8F84F82031BFF35B8FF0BD1F
:109C70000A4B0B485A68C2F30802003218BF01228F
:109C8000BDE8F040FFF7D0B820730020007002401C
:109C900028700240507002404870024000ED00E021
:109CA000099D0200144BBFF35B8F0122D3E84F1FC5
:109CB000C3E84C2FBCF1000FF8D1BFF35B8F11F05C
:109CC000FF0F14D10260BFF36F8FBFF34F8F0B4BA9
:109CD000984203D0043B984200D07047084BBFF332
:109CE0005B8F002283F82021BFF35B8F7047014612
:109CF0000448FFF799B800BF40740020507002403C
:109D000020730020A59C0200F0B5334CBFF35B8F9D
:109D1000C1B204F590730126D3E84F2FC3E8406F1A
:109D20000028F9D1BFF35B8F12F0FF0F47D108294C
:109D300028D04D01621954F805E028489388DFF8CF
:109D4000B0C001F5947550F82570D2888D009A1A2C
:109D500093B2BFB26A1800EB8202BB4228BF3B46F7
:109D6000C2F800E76544C2F804374CF82160BFF33D
:109D70006F8FBFF34F8F1A4B9D4218D0043B9D420B
:109D800015D0F0BD154BD3F8C024D1030FD494F8EF
:109D90000B1161B11349D4F80001C3F8A007C3F84F
:109DA000A4270E60BFF36F8FBFF34F8FF0BD00236A
:109DB000BFF35B8F84F82031BFF35B8FF0BD0A4B9C
:109DC0000A485A68C2F30802003218BF0122BDE8EF
:109DD000F040FFF729B800BF207300200070024058
:109DE000507002404870024000ED00E0099D020002
:109DF00028700240704700BF014B80225A607047B4
:109E000000E100E0074BD3F80014D3F80024002051
:109E10000A434FF48001C3F80024C3F85801C3F883
:109E2000041370470070024070B48A788C88414EE9
:109E3000C97802F07F03D50905EB430006EB00105B
:109E400001F00301C4F30A04012904812BD001218C
:109E500001FA03F4BDB1384802339940C0F8041345
:109E6000D0F810352343C0F81035334B42F48071DD
:109E7000C3F81825C3F80C15BFF36F8FBFF34F8FCE
:109E8000012070BC70472C4803F10C06B140C0F8AB
:109E90000413D0F8141503F594730C43C0F814455B
:109EA00040F82350E1E7082B08D0244B186810F045
:109EB0000100E6D000BE002070BC7047EDB9B6F8D6
:109EC00018311BB11C4B8021C3F81C151A49002303
:109ED000C1F85031D1F8003313F4001308BFC1F8B2
:109EE0005431154B4FF44011C3F80413D3F8141533
:109EF00041F48071C3F81415B7E7B6F808110E4B9A
:109F00000020C3F82C0111B18021C3F81C150A49A7
:109F1000D1F8003313F4001308BFC1F85431064BD5
:109F20000749C3F80413D3F8101541F48071C3F83E
:109F300010159AE72073002000700240F0ED00E059
:109F4000000820001F4B80222DE9F041C3F8842037
:109F5000BFF34F8FBFF36F8F01241B4D1B4FA046E4
:109F60000026A30004F10C02A11C03F1804303F5B9
:109F70001C3308FA01F108FA02F20A43C7F8082371
:109F800028465E60013420229E62002138F073F87A
:109F9000082C05F12005E4D10D4BC7F80833202229
:109FA000C7F81C6500217E620A48BE6438F063F879
:109FB000C7F81485C7F81085024B80225A60BDE8A7
:109FC000F08100BF00E100E040730020007002401B
:109FD000000830002074002001F07F004FEAD11CFF
:109FE000F0B50CEB4005704F2D017E1985B0F47A69
:109FF0004CB16E4B1C6814F0010401D000BE00246B
:10A00000204605B0F0BD04F0FF0E7A510C46B38037
:10A01000A6F806E0002840D1002B54D1644BD3F8B9
:10A020008034C3F3C01363454DD0BFF35B8F07F596
:10A0300090710122D1E84F3FC1E8402F0028F9D1AB
:10A04000BFF35B8FDBB2002B40F09F8059490A6061
:10A05000BFF36F8FBFF34F8FBFF35B8F87F8203154
:10A06000BFF35B8F544B5968C1F3080100314FF0C7
:10A0700000034FF4E06201A818BF0121CDF80630BB
:10A0800003938DF80840ADF80A30ADF80420FEF7D0
:10A09000ABFD0124204605B0F0BDBCF1000F15D189
:10A0A00007EB40170123FB72BFF36F8FBFF34F8F96
:10A0B000BB7A23B1FB7A03F0FF04002B6ED101249D
:10A0C000204605B0F0BDBCF1000F3CD007EB4011BD
:10A0D00000EB8003CD8A8A8A0C8B0969521B9B0096
:10A0E00092B203F1804303F51C33A24228BF2246FB
:10A0F000324DC3F8001600B2C3F80426304BBFF34C
:10A100005B8F05EB80010122D3E84F4FC3E8462F58
:10A11000002EF9D1BFF35B8FE4B2002C3AD145F8A1
:10A120002020BFF36F8FBFF34F8F224B994202D095
:10A13000043B9942C3D1BFF35B8F002387F82031E2
:10A14000BFF35B8FBBE701221D4BFA72BFF35B8F3E
:10A15000D3E84F4FC3E8412F0029F9D1BFF35B8FFC
:10A16000E4B26CB9174B1A60BFF36F8FBFF34F8F18
:10A17000BFF35B8F87F820C11446BFF35B8F3FE7C7
:10A1800010491148FEF750FE3AE70A490E48FEF71B
:10A190004BFE67E70C48FEF747FE31E787F80AC039
:10A1A000FFF70AFD2CE700BF20730020F0ED00E070
:10A1B000007002405070024000ED00E00470024068
:10A1C000407400204C700240A59C020011F07F00FA
:10A1D00008B512D008280BD00E4B41F48072C90983
:10A1E000C3F8182504D10C4B03EB40139A7A62B9DB
:10A1F000BFF36F8FBFF34F8F08BD064B01225A6527
:10A20000BFF36F8FBFF34F8F08BD9972FFF7D4FC78
:10A21000EEE700BF007002402073002011F0770FBE
:10A2200012D00A4B41F48072C3F80C15C3F80C2508
:10A23000CA09C3F8181504BF01F5947143F8212029
:10A24000BFF36F8FBFF34F8F704700BF00700240A6
:10A250002DE9F04FA54BA64CD3F80003002389B09D
:10A260001E461F46012520FA03F11A19C9074FEAB5
:10A27000820209D5116839B105FA03F117600E435E
:10A28000BFF36F8FBFF34F8F0133192BEBD1F5075E
:10A2900000F17D82974D340508D5944BD3F8A8364C
:10A2A00001229BB2A5F8163185F81C21B00220D5F9
:10A2B0008E4CD4F81435D90500F1FD81D4F8103551
:10A2C000DA0500F125824FF40013C4F808330DF1CC
:10A2D00016070DF114080023CDF8163003227B6019
:10A2E0003B81404601218DF814308DF81520FEF792
:10A2F0007BFC73021FD57D4BD3F8004404F4E0626D
:10A30000E705C3F8002400F1AD82600510D5774B56
:10A310000122C3F808259A65D3F8002312F400122D
:10A3200008BFC3F85421714B4FF40012C3F8042343
:10A33000A10500F1AD82320240D56C4BD3F88024E8
:10A34000D3F88414D3F888C4D3F88C74D3F89084E9
:10A35000D3F89444D3F89804D3F89C34D2B25FFA7B
:10A3600080FAD8B25306C9B25FFA8CFCFFB25FFA2A
:10A3700088F85FFA84FE01D105291FD04FF000094B
:10A380004B464C4662F3070368F3070461F30F235F
:10A390006EF30F246CF317436AF3174460F31F64E2
:10A3A00067F31F634FF4C062012105A8ADF8169052
:10A3B000CDE90634ADF81420FEF716FC4E4B3340C1
:10A3C000002B40F0D481DFF82C91484F4D46CA460F
:10A3D00009F5907800241FE02B44DA7A002A00F077
:10A3E0002282DA88AAF804200022DA72DB88079336
:10A3F00001214FF4E06305A8CDF81620ADF81A202E
:10A400008DF818B0ADF81430FEF7EEFBBBF1080F75
:10A4100047D001340AF1200A04F10C0326FA03F3B1
:10A42000D8075FFA84FBF1D504EB840307EB8303C1
:10A43000DAF80020D3F80807630112FA80F2E9186D
:10A44000CAF80020CA8880B2024492B2082CCA809E
:10A45000C2D0BAF808208242BED1CA88BAF8041025
:10A460009142B9D9BBF1000FD0D10122BFF35B8F6C
:10A47000D8E84F3FC8E8412F0029F9D1BFF35B8FDF
:10A4800013F0FF0F1D4940F06A820A60BFF36F8F1F
:10A49000BFF34F8FBFF35B8F85F82031BFF35B8F26
:10A4A000B7E7174B3340002B00F002810F4BD3F876
:10A4B0006CA4C3F86CA4BFF36F8FBFF34F8F16F477
:10A4C000806600F0B981D3F88024D3F8803483F01B
:10A4D0008003C3F3C0130393C2F3C0130293D046A7
:10A4E000DFF808B00024AA4614E000BF0070024064
:10A4F000409C001020730020FCFB1F004C700240A9
:10A5000000040001002C00F00182072F50D001341C
:10A5100009F1200928FA04F204EB8403D2070BEBBB
:10A5200083030AEB4415E7B2ECD5D3F80816D9F843
:10A530001020C9B20A44C9F81020E88A014489B23F
:10A54000E982BF49E88AB9F8146061188900864237
:10A5500000914FF0010E67F07F0101914FF0000C68
:10A56000714605A840F2F280E88AB9F81810C3F8DD
:10A570000026361AB6B28E4228BF0E46B14AC3F83C
:10A580000466BFF35B8FD2E84F3FC2E841EF00297A
:10A59000F9D1BFF35B8F13F0FF0F40F03E81009BBA
:10A5A000C3F800E0BFF36F8FBFF34F8F072FAED11B
:10A5B00018F4803F5546C24601D1039B43B1EB7A64
:10A5C00023B1EB88AA889A4200F290810123AB72F2
:10A5D0001AF4003F0AD095F82B3023B1EB8CAA8CEB
:10A5E0009A4200F2A481012385F82A301AF4802FC0
:10A5F0000CD095F84B3033B1B5F84630B5F844205F
:10A600009A4200F2A481012385F84A301AF4002FFF
:10A610000CD095F86B3033B1B5F86630B5F86420DE
:10A620009A4200F29881012385F86A301AF4801F5B
:10A630000CD095F88B3033B1B5F88630B5F884205E
:10A640009A4200F25781012385F88A301AF4001FDC
:10A650000CD095F8AB3033B1B5F8A630B5F8A420DE
:10A660009A4200F24B81012385F8AA301AF4800F38
:10A670000CD095F8CB3033B1B5F8C630B5F8C4205E
:10A680009A4200F23F81012385F8CA301AF4000F84
:10A690000ED095F8EB30002B00F00B81B5F8E630CA
:10A6A000B5F8E4209A4240F204810720FFF784FACB
:10A6B00009B0BDE8F08F634BBFF35B8F0122D3E895
:10A6C0004F1FC3E8402F0028F9D1BFF35B8F11F073
:10A6D000FF0F40F0FA80D4F8C034DF0300F11B8193
:10A6E00095F80B1101F0FF00002900F02481564974
:10A6F000D5F80001C4F8A007C4F8A4370A60BFF376
:10A700006F8FBFF34F8FD4F81035D9057FF5DFADCC
:10A7100095F81C310DF116070DF11408002B3FF4CC
:10A72000DAAD0023B5F81611CDF8163085F81C31D6
:10A73000BB804FF4E0620791882340460121ADF8C9
:10A7400014208DF81830FEF74FFAC4E5EB8A079312
:10A750004FF4E063ADF814309DF80430CDF816C026
:10A76000ADF81AC08DF81830FEF73EFACDE6BFF30B
:10A770005B8F95F82031BFF35B8F002B40F09D80FD
:10A78000324B1B68DC077FF51EAE00BE1BE6304B6C
:10A79000304A314D314800244FF00109C2F8149578
:10A7A000C2F81095546094625C609C629C60DC62AC
:10A7B000DC601C631C615C635C619C639C61DC63AA
:10A7C000DC611C6454629464C2F85841D2F80034CD
:10A7D000D2F800140B43C2F80034D2F80033C2F8A8
:10A7E00008332146C2F804030DF116070DF12008C5
:10A7F00028464FF4927237F03EFC4FF48073CDF848
:10A8000016407C603C8128F80C3D40234946404678
:10A810002B832B81FEF7E8F93DE57246009910483D
:10A82000FEF702FB71E6094B1B68D9077FF540AFC5
:10A8300000BE09B0BDE8F08FCDE902664FE600BF6B
:10A84000019C00104074002048700240F0ED00E0D0
:10A850000470024000700240207300200514C00103
:10A86000A59C02000121C3F82C150422002305A891
:10A87000CDF81A30CDF81630ADF81E308DF8143002
:10A880008DF81520FEF7B0F960057FF551AD3EE576
:10A8900000230522012105A8CDF81A30CDF8163085
:10A8A000ADF81E308DF814308DF81520FEF79CF9A8
:10A8B00041E5012385F8EA30FAE60023BFF35B8F18
:10A8C00085F82031BFF35B8F7DE5274B27485A6819
:10A8D000C2F30802003218BF01220821FEF7A4FAD1
:10A8E000D4F81035DB053FF513AFF0E40020FFF797
:10A8F00063F96DE60420FFF75FF9A7E60520FFF78F
:10A900005BF9B3E60620FFF757F9BFE6029A002A83
:10A910003FF4FDAD09E6BFF35B8F85F82011BFF36F
:10A920005B8FD4F81035D8053FF5F2AECFE40120A7
:10A93000FFF742F95AE6BFF35B8F85F82001BFF3BA
:10A940005B8FD4F81035DA053FF5E2AEBFE40220A4
:10A95000FFF732F95AE60320FFF72EF966E60448BE
:10A96000FEF762FA55E500BF00ED00E0099D020028
:10A97000A59C020030B5012885B000F09F8057D318
:10A98000022840D1B94BD3F80435002B40F0DD80CC
:10A99000B64AD2F800341C05FBD54FF40063C2F868
:10A9A0000034BFF36F8FBFF34F8FB14AB14B1268C2
:10A9B0001B68082A00F0DD80AC4BAF4D80240122DB
:10A9C000C3F81C45C3F80423C5F88441FEF77AF8A0
:10A9D000002840F0FF80A94D43F204044FF080436B
:10A9E0002268AA4211D0D3F80C14D3F80C24D00357
:10A9F000F6D5CA07F4D59D4B0122C3F80425BFF351
:10AA00006F8FBFF34F8F05B030BD04AA002102F84D
:10AA10000C1D1046FFF7CEF89DF804000028E2D088
:10AA200010460191FFF7C4F8019A002AD8D0E2E756
:10AA30008E4BD3F80025002AE5D14FF480014FF466
:10AA40000062C3F80813C3F80024BFF36F8FBFF38D
:10AA50004F8F874B1B68082B00F0BE80834B012271
:10AA6000C3F80025BFF36F8FBFF34F8F43F204028B
:10AA700003F18D5303F57723126803F2DB539A42F7
:10AA800000F0D1804FF08043D3F80C24D3F80C347D
:10AA9000D90301D5D207B6D443F20402774B12682A
:10AAA0009A4200F01E81764B00221A601B680193C7
:10AAB0004FF08043012201991A60A4E76B4BD3F851
:10AAC0000025002A9FD00022C3F80425BFF36F8F12
:10AAD000BFF34F8F68498020C1F88400BFF34F8FC8
:10AAE000BFF36F8FD3F80013C3F80813C3F8002522
:10AAF000BFF36F8FBFF34F8F43F2040103F18D5308
:10AB000003F57723096803F2DB53994200F0A08034
:10AB100001AB5C4A012111605B4A5168C1F3080135
:10AB2000003118464FF002024FF0000318BF012118
:10AB3000CDF80A30CDF80630ADF80E308DF804307F
:10AB40008DF80520FEF750F85DE743F204024B4B09
:10AB500012689A4200F0B0804FF08043D3F80C2482
:10AB6000D3F80C34DB037FF513AFD5077FF510AFB7
:10AB700049E7032B0AD8454A1168002940F098801C
:10AB8000434C49F275301060216010605A1E022A51
:10AB900011D83E4A1168002940F082803D4D34486A
:10ABA000344B00681B6849F27534146029601460E6
:10ABB00008287FF401AF032B3FF6FEAE3649374B32
:10ABC00040F2E370402208601A60BFF36F8FBFF35A
:10ABD0004F8FF1E66C60FEE6264B1B685A1E022A78
:10ABE00012D82A4B1A68002A40F08D80294949F270
:10ABF000753203201A6008601A601D4A1D4B1268E6
:10AC00001B68082A7FF42AAF032B3FF627AF1F4BA0
:10AC10001A68002A73D11E4949F27532C0201A60A1
:10AC200008601A601AE704AB002203F80C2D1846DE
:10AC3000FEF7C0FF9DF8041000293FF423AF18462B
:10AC40000192FEF7B5FF019B002B7FF4DCAE23E7FA
:10AC500004AB03F80C2D1846FEF7ACFF9DF804205A
:10AC6000002A3FF456AFFEF7A1FF55E700700240FF
:10AC7000300100103401001000E100E0DBE5B151CB
:10AC8000000100400400004000ED00E000EC064040
:10AC900014EC064014ED06400078024004780240AF
:10ACA0001B491C4B1C4A08681B68002111607FE788
:10ACB0001A4A0021116069E704AB002203F80C2D49
:10ACC0001846FEF777FF9DF8041000293FF444AFC3
:10ACD00018460192FEF76CFF019B002B7FF493AEA8
:10ACE00056E604A8002300F80C3DFEF763FF9DF82C
:10ACF0000430002B3FF4D7AEFEF756FF83E6074B38
:10AD0000C0221A60AAE6044B03221A6075E700BF4E
:10AD1000300100103401001014ED064014EC064020
:10AD2000F8B5037813F0010405D10678C6F3800660
:10AD300026B12046F8BD00242046F8BD0F46054642
:10AD40004FF0FF3138462DF0FFFF2A7812F0010452
:10AD50000FD12B785B0704D42B7843F004032B70BE
:10AD60000124002338461A4619462DF06DFB204673
:10AD7000F8BD3446F5E700BF70B505460E460846F7
:10AD80004FF0FF312DF0E0FF2878C0F3800444B984
:10AD90000024002330461A4619462DF055FB204664
:10ADA00070BD2B7813F00102F2D12B7862F382038D
:10ADB0002B70EEE7C378828803F003000228C2F309
:10ADC0000A021DD013D801280FD1022940F2FF3307
:10ADD00008BF4FF48063934211D20E4B186810F0F5
:10ADE00001000CD000BE00207047002070470229EF
:10ADF0000CBF4FF4806340239342EED30120704791
:10AE0000022902D0402AE8D8F8E7B2F5007FE4D161
:10AE1000F4E700BFF0ED00E00A44914216D230B4EE
:10AE20004C78052C05D00C7821448A42F8D830BCE7
:10AE300070478C7804F07F0500EB4505E4092B553D
:10AE40000C7821448A42EBD830BC7047704700BF71
:10AE50004FF400401FF0A0BDF0B5002183B0534C6B
:10AE6000112030F025FF52481FF0CAF94FF420227C
:10AE7000504B62602046A3602BF02EF978B14E490A
:10AE80004E4837F051FF4E4837F04EFF0A2037F05A
:10AE900063FF4C4B187800287CD103B0F0BD2A2307
:10AEA00006461A46302120468DF806302AF0B8FFB3
:10AEB000454B1B78002B14BF0323102302AF1A4607
:10AEC0000125322120468DF806302AF0A9FF07F827
:10AED000025D2A46332120462AF0A2FF3946242269
:10AEE00020462BF0ABF89DF8063023F00C0343F01E
:10AEF00008031A46242120468DF806302AF090FFD8
:10AF000060231A46222120468DF806302AF088FF59
:10AF10003246252120462AF083FF2A462121204659
:10AF20002AF07EFF3946202220468DF806602BF05D
:10AF300085F89DF8063043F008031A462021204684
:10AF40008DF806302AF06CFF64202DF053F9394655
:10AF50001E2220468DF806602BF070F89DF8063012
:10AF600043F090031A461E2120468DF806302AF041
:10AF700057FF64202DF03EF90DF1070120463122E4
:10AF80002BF05CF80422114911202CF051FF2846C7
:10AF900003B0F0BD0A490E482CF044FB0D490C48A3
:10AFA0002CF040FB002003B0F0BD00BF4474002033
:10AFB00058AC0020020101016C5A0600705A0600CC
:10AFC000785A060004B400207074002051AE0200CC
:10AFD00028B30020348806002DE9F04F2DED048BB6
:10AFE0006148624C8DB02BF031FA5F48B0EE408A78
:10AFF0002BF074F95C48F0EE408A2BF0B7F818EEAD
:10B00000100AB0EE409A36F0A9F90022584B80465B
:10B01000894636F0FBF9064618EE900A0F4636F0E0
:10B020009DF90022524BCDE9040136F0EFF9CDE94C
:10B03000060136F09BFC0FFA80FA19EE100A36F082
:10B040008DF900224A4BCDE9080136F0DFF9CDE950
:10B050000A0136F08BFC474905B2474837F064FED9
:10B060003946304636F082FC0FFA80FB4B464246AA
:10B07000CDF808B0CDE90067404837F055FE0A200A
:10B0800037F06AFE2378002B5FD13A493A4837F00F
:10B090004BFE9DED067BDDE904238DED007BCDF8B5
:10B0A00008A0374837F040FE0A2037F055FE2378D5
:10B0B000002B39D12F49304837F036FE9DED0A7B01
:10B0C000DDE908238DED007B02952E4837F02CFE3C
:10B0D0000A2037F041FE2378B3B92B4B1B7823B9F4
:10B0E0000DB0BDEC048BBDE8F08F2848B0EE491AD6
:10B0F000F0EE680AB0EE480A40210DB0BDEC048BBA
:10B10000BDE8F04F14F0A4BF9DED0A7B02958DEDD4
:10B11000007BDDE908231B491D482CF083FA1D49FB
:10B120001B482CF07FFAD8E79DED067BCDF808A0F0
:10B130008DED007BDDE90423114915482CF072FAEE
:10B14000144913482CF06EFAB4E7CDF808B0CDE9F5
:10B15000006742464B4609490D482CF063FA0D49F9
:10B160000B482CF05FFA90E74474002004B40020F0
:10B1700000408F406C5A0600705A06009C5A060028
:10B18000AC5A0600BC5A06005974002068740020AE
:10B1900028B300203488060000B583B031220DF1B9
:10B1A000070103482AF04AFF03B05DF804FB00BF23
:10B1B000447400201822002101482AF015BE00BF67
:10B1C0004474002001201FF0E7BB00BF10B5044607
:10B1D00014F0FCFE204610BD014B01221A7070478E
:10B1E000D0AD002070B50B4E0B4D0C4C304630F0FE
:10B1F000D7F92A4630460A4935F068FD2046FF2136
:10B2000014F0D8FE2A4620460649BDE8704035F0C5
:10B210005DBD00BF607400200060002068740020E5
:10B2200051B50500CDB102002DE9F04B61496248EE
:10B23000624E82B037F078FD614837F075FD0A2024
:10B2400037F08AFD3378002B40F0F282002211465D
:10B2500002201FF077FB5B484FF4E1310746FBF714
:10B260006FF92CF0BBFF41F287384FF0000904461C
:10B27000002519E02CF0B2FF8346BBEB04024FF02F
:10B28000000C6CEB0503904579EB03034FF0640071
:10B290000FDB2CF0AFFF232030F0AAFDB0FA80F1D5
:10B2A0004909232030F088FD3846FBF761F9002872
:10B2B000E0D002F08FFF444942482CF0B3F94349F3
:10B2C00040482CF0AFF93378002B40F0A982DFF82A
:10B2D000289199F80030002B00F0DA813C49394878
:10B2E0002CF0A0F9394937482CF09CF93378002B21
:10B2F00040F0E482374933482CF094F9334931481F
:10B300002CF090F93378002B40F0BC82324C334F54
:10B31000334D21883B882A882A48009131492CF0F6
:10B3200081F92A4927482CF07DF93378002B40F029
:10B330006B822D4923482CF075F9244921482CF0C3
:10B3400071F93378002B40F057821F491D482CF0CB
:10B3500069F91E491B482CF065F93378002B40F041
:10B36000438221F0C3F903F029F80121222030F0B3
:10B370009FFC0121222030F01FFD1C48DFF87C805B
:10B380000D4F05461EF03CFF194928461EF09CFF54
:10B390000121222030F08CFC0121222030F00CFD14
:10B3A00028461EF02DFF134928461EF08DFF01246C
:10B3B00029E000BFB45D0600705A060004B4002006
:10B3C000B85D060034670020C45D060034880600BE
:10B3D000E45D0600145E06000CAE00200AAE0020FC
:10B3E00048630020305E0600485E060058AC00202E
:10B3F000801A0600A086010070740020C45E06005A
:10B4000001347F2C22D02846E1B21EF0CBFF284623
:10B410001FF03AF80028F3D14146384637F084FC53
:10B420002146A54837F080FC0A2037F095FC337898
:10B43000002BE5D02246A049A0482CF0F3F80134B7
:10B440009F499E482CF0EEF87F2CDCD1DFF8E0829B
:10B450009C4F01F085FA98F859403870002C00F0A4
:10B460009B81FFF7F9FC984D984C287002F0C0FAC8
:10B470002070002840F01E82D8F84C00002800F010
:10B48000038141080B460020DFF8A8C2904ACCF89F
:10B49000003000230093CCF804008E4830F088F888
:10B4A0008D498E482CF0BEF885498C482CF0BAF8AE
:10B4B0003378002B40F0F681894988482CF0B2F8A7
:10B4C0007F4986482CF0AEF83378002B40F0E281BB
:10B4D000844B1B7823B999F80030002B00F0408191
:10B4E00081497E482CF09EF875497C482CF09AF8EA
:10B4F000337833B17C4971482CF094F87B481AF0CA
:10B5000075FD237813B17A4802F058FC794B1B780B
:10B51000002B40F09E81784970482CF083F86849F0
:10B520006E482CF07FF83378002B40F08A8199F830
:10B530000030002B5AD0714968482CF073F86049EC
:10B5400066482CF06FF83378002B40F0BF812378E9
:10B55000002B40F0C6816A4B1B78002B5CD15E4902
:10B560005E482CF05FF856495C482CF05BF8337865
:10B57000002B40F009813B78002B60D0614957488F
:10B580002CF050F84E4955482CF04CF83378002BED
:10B5900040F0AB812B785C4F002B62D15B494F4868
:10B5A0002CF040F846494D482CF03CF83378002BFD
:10B5B00040F0A48100233B7099F800307BB92378D8
:10B5C000002B00F0B980524944482CF02BF83C493C
:10B5D00042482CF027F83378002B40F0AD814D48DD
:10B5E00014F0FCFC387802B0BDE8F08B4A493B48C7
:10B5F0002CF018F8324939482CF014F83378002B25
:10B6000040F086812378002BA5D0444802F0D6FB79
:10B610003B4B1B78002BA2D0414930482CF002F85C
:10B6200027492E482BF0FEFF3378002B97D03C495A
:10B6300022482BF0F7FF2D481AF0D8FC8FE7394944
:10B6400026482BF0EFFF1E4924482BF0EBFF337800
:10B65000002B40F069812C4F00233B702B78002B8E
:10B660009CD031491D482BF0DDFF15491B482BF0BC
:10B67000D9FF3378002B9FD02B4910482BF0D2FFF5
:10B680001A481AF0B3FC97E747F230510B46FBE635
:10B69000264912482BF0C6FF094910482BF0C2FF7B
:10B6A0003378002B3FF426AE204904482BF0BAFF34
:10B6B0000E481AF09BFC1DE6CC5E060028B3002065
:10B6C0003488060023610020156100207174002079
:10B6D000C5B1020060740020C45D0600346700201C
:10B6E000205F060022610020345F060010B30020B6
:10B6F000545F060058740020DC5F0600EC5F060013
:10B7000059740020586006002461002088600600FB
:10B7100098600600687400200C600600286006002F
:10B72000386006006860060078600600FC5D060070
:10B730006C64002028610020934994482BF072FF2C
:10B74000934992482BF06EFF3378002B3FF447AFBC
:10B750008D4990482BF066FF8F481AF047FC3EE772
:10B760008E498A482BF05EFF894988482BF05AFFA2
:10B770003378002B40F0E8802378002B3FF4C6AEEE
:10B78000874802F01BFBC1E6864982482BF04AFF3E
:10B7900081481AF02BFCEEE60322214601202CF012
:10B7A000DFFD814D23462246214628602CF04CFEC9
:10B7B0000A2128682DF0C8FA7C4B019301220092DF
:10B7C00023464FF480527A497A482DF00BFE002828
:10B7D00000F0C2802CF002FD774B784A18600021FF
:10B7E0005960012313703CE66E496A482BF01AFF3A
:10B7F00069481AF0FBFBB4E5714966482BF012FF6B
:10B8000065481AF0F3FBA0E521883B882A88614847
:10B8100000916C492BF006FF5F481AF0E7FB88E5C2
:10B8200060495C482BF0FEFE5B481AF0DFFB4EE5FA
:10B83000654958482BF0F6FE554956482BF0F2FE64
:10B8400004E5624953482BF0EDFE53481AF0CEFB55
:10B850006DE65F494D482BF0E5FE4D494B482BF016
:10B86000E1FE337833B15A494A482BF0DBFE4A48AF
:10B870001AF0BCFB2378002B3FF44DAE554802F084
:10B880009DFA48E6544943482BF0CCFE42481AF052
:10B89000ADFB3BE551493F482BF0C4FE3E481AF052
:10B8A000A5FB15E63F493B482BF0BCFE3A481AF091
:10B8B0009DFB01E64A4802F08BF9DDE54949354830
:10B8C0002BF0B0FE34481AF091FB13E5464931489D
:10B8D0002BF0A8FE30481AF089FB2378002B3FF4A8
:10B8E0003AAE424802F06AFA35E641492948414FEA
:10B8F0002BF098FE28481AF079FBAFE63E49254820
:10B900002BF090FE24481AF071FB00233B7053E6A5
:10B910003A4920482BF086FE1F481AF067FB23782F
:10B92000002B3FF418AE70E635491A482BF07AFE2A
:10B9300019481AF05BFB8EE6324916482BF072FE6E
:10B9400015481AF053FB4AE6144912482BF06AFED8
:10B9500011481AF04BFB0FE72B492C4837F0E4F95C
:10B960002B4837F0E1F90A2037F0F6F93378002B4D
:10B970003FF430AF264907482BF054FE04490548F0
:10B980002BF050FE26E700BFA860060034670020B9
:10B990003488060028B3002010B30020685F06003A
:10B9A000885F0600C45D0600847400208C7400204B
:10B9B000E85E06000DD602007874002012B6002062
:10B9C000485E0600305E0600B85D0600DC5F0600DB
:10B9D0009C5F0600C45F0600145E0600205F060040
:10B9E0000C5F0600E45D0600EC5F06009073060045
:10B9F0005860060024610020886006000C60060084
:10BA00006860060098600600B45D0600705A060083
:10BA1000F05E06002DE9F04F934C2388D90785B0DE
:10BA200000F14A8123881A045ED423885B0402D47F
:10BA300005B0BDE8F08F2388DFF844828B4F8C4E31
:10BA400023F480431B041B0C23802CF0C7FB894B81
:10BA5000894A1860002440465C60147014F0C4FAEF
:10BA6000451E04E015F8012F01342BF0DBFD4046A4
:10BA700014F0B8FAA04239463046F3DC7F497C48DE
:10BA80002BF0CEFC7E4814F0ADFA7E490246784891
:10BA90002BF0C8FD7C4B93F85920002A00F0FE8162
:10BAA00093F85820082A04D193F85230002B00F064
:10BAB000D882734814F098FA0446714814F092FA48
:10BAC00000220146204622F0C3FE002800F05A81E1
:10BAD000012800F07982013000F04581684805B006
